:030000000208B241
:0C08B200787FE4F6D8FD7581590208F942
:0D0E3900EF4E600800EF1F70F71E80F422DE
:100DD500EF4E60147D737C00ED1D70011CED4C70B1
:080DE500F7EF1F70EB1E80E820
:010DED0022E3
:100D2300EFC394085021ED700E04A807088002C396
:100D330033D8FCF4528022BD010D7401A80708804A
:080D430002C333D8FC428022F8
:10080000EFC394085026ED700E04A807088002C3B9
:1008100033D8FCF4528022ED640160030208B10475
:10082000A807088002C333D8FC428022EFC394108B
:10083000502774F82FFFED700E04A807088002C33C
:1008400033D8FCF4529022ED6401706504A80708C7
:100850008002C333D8FC429022EFC394185027740F
:10086000F02FFFED700E04A807088002C333D8FCF8
:10087000F452A022ED6401703804A807088002C376
:1008800033D8FC42A022EFC39420502574DE2FFF02
:10089000ED700E04A807088002C333D8FCF452B0F0
:1008A00022BD010D7401A807088002C333D8FC42A1
:0208B000B02274
:100AF700EFC39408500DE580A807088002C313D8F8
:100B0700FC8043EFC39410501174F82FFFE590A8B1
:100B170007088002C313D8FC802CEFC39418501128
:100B270074F02FFFE5A0A807088002C313D8FC8044
:100B370015EFC39420501374E82FFFE5B0A80708FA
:0D0B47008002C313D8FC5401FF227F00225E
:080E0400022AFFFF0208FFFFB4
:100DEE00BE2505BF80027DFD7589208D8D759850BD
:050DFE0075A890D28EE3
:010E030022CC
:080E53008F993099FDC299222C
:100D4B008B498A4A894BAB49AA4AA94B120C816041
:100D5B0013054BE54B7002054A14F9120C81FF1277
:050D6B000E5380E2229E
:100B5400E52BB4FF09E52AB4FF04E4FEFF22C3E554
:100B64002B9509E5086480F8E52A648098500FC342
:100B7400E509952BCFE508952ACF24018023D3E5F9
:100B84002B9509E5086480F8E52A6480984017E409
:100B9400952BFFE4952AFEE5092FCFE5083ECF24E7
:0B0BA40021CF3400FE227E007F0122E2
:100C4500E52BB4FF08E52AB4FF037F0022AF2B7420
:100C55000A2FF8E6FFE52BB5090DE52AB508087456
:100C6500FFF508F5098010052BE52B7002052AE52F
:0B0C75002B6420452A7004F52AF52BA3
:010C80002251
:0D0E4600120B54EF4E6005120C4580F42293
:0300230002093E91
:10093E00C0E0C0D075D000C000C006C007309862BD
:10094E0085994CC298E509641F45087006E52B454C
:10095E002A6011E5092401FFE43508FEEFB52B0CE2
:10096E00EEB52A08052BE52B7002052AE52B64202F
:10097E00452A600AE52BB4FF0BE52AB4FF06752A5B
:10098E0000752B00E509641F45087006F508F5098A
:10099E0080080509E50970020508AF09740A2FF8E9
:0209AE00A64C55
:0B09B000D007D006D000D0D0D0E0323D
:0A09BB008B398A3A893B8C3C8D3D54
:1009C500E4F53EF53FF540F541D3E53D953FE53E80
:1009D5006480F8E53C648098403E120B54D3EF9454
:0609E50000EE9400402129
:1009EB00120C458F42AB39AA3AA93B0541E541AE02
:0F09FB00407002054014F5828E83E542120C9A7B
:100A0A0080D37F017E00120DD5053FE53F70B50505
:100A1A003E80B1AB39AA3AA93B854182854083E43D
:030A2A00020C9A21
:0C0E0C0004450000000001440001430008
:010E5B002274
:100A2D008F458D468B47853348853544853743E45F
:100A3D00F53874452538F8E6FFE4FD120D23053829
:100A4D00E538C3940440EBE4FDAF44120D23E4FDFF
:100A5D00AF43120D23E4FD7F03120A93E4FD7F02E1
:100A6D00120A93E4FD7F28120A93E4FD7F0C120A0B
:100A7D0093E4FD7F01120A93E4FD7F06120A93E4CD
:060A8D00FD7F80020A93C8
:0E0E2B00E4FD7F01120A93E4FD7F80020A932A
:020CBC008F5651
:100CBE00E4F557AF57E556A807088002C313D8FCD2
:100CCE0030E00B74452557F8E6FF7D018009744529
:100CDE002557F8E6FFE4FD1208000557E557C394C3
:030CEE000440D0EF
:010CF10022E0
:020A93008D4D87
:100A9500E4F54EF54FEFC4540FF54EEF540FF54FF7
:100AA5007F037E00120DD5E54DB401047D01800262
:100AB500E4FDAF44120800AF4E120CBC7D01AF43FC
:100AC5001208007F037E00120DD5E4FDAF43120826
:100AD500007F037E00120DD5AF4F120CBC7D01AF18
:100AE500431208007F037E00120DD5E4FDAF4302DB
:020AF5000800F7
:100BAF008B508A518952AB50AA51A952120C8160B5
:100BBF003EB40D02800CAB50AA51A952120C81B455
:100BCF000A147D017F20120A9374012552F552E415
:100BDF003551F55180D0AB500552E552AA517002F4
:100BEF00055114F9120C81FF7D01120A9380B7226F
:100DB7008F588D59E5597006E55824808009E55903
:0E0DC700B4010AE55824C0FFE4FD120A93228D
:100E19008B538A548955120DB7AB53AA54A955025D
:020E29000BAF0D
:100CF200202020204D4153544552202020200038EE
:100D0200303531204C696272617269657300383026
:100D120035312053657269616C20546573740D0A14
:010D220000D0
:100D9400E4FDFF120D237D01E4FF1208007FE87ECD
:100DA40003120DD5E4FDFF1208007FE87E03120D47
:030DB400D580E304
:100BFF00E4FD7F021208007532007533077534006B
:100C0F007535017536007537037B067A007D057CD7
:100C1F00007F047E00120A2D120E2B7BFF7A0C79B7
:100C2F00F2E4FDFF120E197BFF7A0D79017D01E4CD
:060C3F00FF120E1980FEF9
:100D70007F807E25120DEE7BFF7A0D7910120D4BD0
:100D8000120B54D3EF9400EE940040F4120C451271
:040D90000E5380EC92
:1008BE00020D70E493A3F8E493A34003F68001F2D3
:1008CE0008DFF48029E493A3F85407240CC8C3333B
:1008DE00C4540F4420C8834004F456800146F6DF0A
:1008EE00E4800B0102040810204080900E04E47E88
:1008FE00019360BCA3FF543F30E509541FFEE493FF
:10090E00A360010ECF54C025E060A840B8E493A3C5
:10091E00FAE493A3F8E493A3C8C582C8CAC583CAF0
:10092E00F0A3C8C582C8CAC583CADFE9DEE780BEA8
:010E180000D9
:100C8100BB010689828A83E0225002E722BBFE0271
:090C9100E32289828A83E49322A4
:100C9A00F8BB010DE58229F582E5833AF583E8F090
:100CAA00225006E92582C8F622BBFE05E92582C83C
:020CBA00F22224
:00000001FF
